:020000041000EA
:10000000002008205D0100101B0100101D010010E0
:100010001101001011010010110100101101001058
:100020001901001019010010190100101F01001022
:10003000110100101901001021010010230100100E
:100040001101001011010010110100101101001028
:100050001101001011010010110100101101001018
:100060001101001011010010110100101101001008
:1000700011010010110100101101001011010010F8
:1000800011010010110100101101001011010010E8
:1000900011010010110100101101001011010010D8
:1000A00011010010110100101101001011010010C8
:1000B00011010010110100101101001011010010B8
:1000C00011010010110100101101001011010010A8
:1000D0001101001011010010110100101101001098
:1000E0001101001011010010110100101101001088
:1000F0001101001011010010110100101101001078
:100100001101001011010010110100101101001067
:10011000EFF30580103800BE00BE00BE00BE00BE7A
:1001200000BE00BEF2EB8871E07200100473001094
:10013000A001001090A31AE7D3DEFFFF42012110B7
:10014000FF010000807F0000793512AB4FF0000006
:100150001E49086006C881F3088810474FF05040D8
:10016000006810B14FF00000F2E70DA40ECC00299A
:1001700002D000F012F8F9E71549164A002000E015
:1001800001C19142FCD11449884714498847144958
:10019000884700BEFDE701C901C29A42FBD3704700
:1001A0000473001010010020C40E0020B88000105D
:1001B0000000082000000820B8800010001008206F
:1001C00000100820000000007047000008ED00E06B
:1001D000C40E0020EC1A0020A52D001035020010DE
:1001E000692D0010F8B500BF064B0749C91A8910E0
:1001F00048BF0131491003D0044B0BB101481847E7
:10020000704700BFC40E0020C40E00200000000094
:1002100008B5054B1BB105490548AFF30080BDE8A3
:100220000840FFF7E1BF00BF000000007C1A00207B
:100230002864001008B502F0CBFE1C491C4805F0EC
:10024000D5FE0121102000F03BF80521112000F01F
:1002500037F80121122000F033F80121132000F0BB
:100260002FF81123012444EC443044EC4030114970
:10027000114805F069FF0321082000F021F803214F
:10028000092000F01DF800222146082000F034F873
:1002900000222146092000F02FF8084802F09CFEB9
:1002A0004FF47A7000F03AFFF7E700BF40420F00CA
:1002B00000000840801A0600B40E002028640010D8
:1002C0000C4B03EB800253F8203083F0400303F023
:1002D000C00302F5805CCCF80030C00000F1804023
:1002E00000F52030416002F540524FF480731360F6
:1002F000704700BF0480034010B40C4C04EB800C2A
:1003000079B108237AB10422134354F820205340D2
:1003100003F00C030CF5805CCCF800305DF8044B66
:1003200070470023EEE70022EEE700BF04800340A1
:100330000FB400B583B0049C074802F04DFE3CB1F9
:1003400005A90191204602F057FE044802F044FE40
:10035000012002F007FD00BF38640010486400105F
:10036000EFF3108072B6064BD3E8CF1F01220029AD
:10037000FAD1C3E8412F0029F6D1BFF35F8F704750
:10038000FF1100200023034AC2E88F3F80F310884A
:10039000704700BFFF11002070B505460C46164699
:1003A000FFF7DEFFE208A95C04F0070C012303FA63
:1003B0000CF3194205D1DBB20B43AB54FFF7E2FF5C
:1003C00070BD21463046FFF7B3FFF8B506460D462F
:1003D00014461F46FFF7C4FF00E00134BC420ED8AC
:1003E0004FEAD40C16F80C1004F0070301229A40CF
:1003F0001142F2D1D2B20A4306F80C2001E04FF0CC
:10040000FF34FFF7BFFF002C01DB2046F8BD002DB5
:10041000FBD00698FFF78CFF054A1078431CDBB22F
:100420001370172B02D9134610221A70704700BFA1
:10043000180E002000B583B00146054B00931F2322
:1004400018220448FFF7C1FF03B05DF804FB00BFAA
:100450004C640010101600204FF0E022936843F027
:100460000053936070470000002305E0044A1A44DB
:100470000021C2E88F1F01331F2BF7D9704700BF3F
:10048000F4110020064B9B68103043F82010BFF396
:100490005F8F00230349C1E88F3F82F310887047C4
:1004A00000ED00E0FD1100200048704700E400E08E
:1004B00008B5FFF7F9FF002304E04FF0803240F861
:1004C000042B01330C2BF8D962B608BD08B503889C
:1004D000DA0A1C2A06D15B050BD45B15023300EB4C
:1004E000430008BD064B074A4FF48E71064802F0E0
:1004F0003FFC03F5FF1303F5FF531F33EDE700BF88
:1005000068640010486D00108064001008B5091A76
:1005100001F2FC7240F6FE739A4208D8081F11F0EF
:10052000010F04D1C0F34A0040F4604008BD034B02
:10053000034A4FF48771034802F01AFCC8640010A4
:100540003C6D0010806400104209064B53F82230C5
:1005500000F01F000122824003EA0200003818BFA9
:100560000120704700E100E03AB1064B00F1600263
:1005700043F8221043F8201070472030014B43F815
:100580002010704700E100E008B50A4600F01F03A4
:10059000012199404009FFF7E7FF08BD00F01F0265
:1005A0004009012393404030014A42F8203070470F
:1005B00000E100E0024B9B68103053F820007047C8
:1005C00000ED00E008B5FFF7F5FF034BC01A2F2838
:1005D0008CBF0020012008BD1C0E002070B5054610
:1005E0000C46EFF3108672B60F4BD3E8CF1F0122F3
:1005F0000029FAD1C3E8412F0029F6D1BFF35F8F5C
:10060000FFF7D8FF094B984201D0A04205D13246EE
:1006100021462846FFF736FF70BD054B054AED2100
:10062000054802F0A5FB00BFFD11002011010010DC
:10063000F8640010706D0010806400102DE9F04F18
:1006400087B000911546EFF3108A72B67C4BD3E861
:10065000CF1F01220029FAD1C3E8412F0029F6D18A
:10066000BFF35F8F774B93F90040002C44DB80464B
:1006700004EB4407744B03EB870797F90610714AA4
:100680001170724A926800F1100152F82190A9EBA2
:1006900003022F2A3ED96E4B994534D14FF42143A2
:1006A000ADF80C304FEA440904EB4400664E06EB0B
:1006B000800068490230FFF729FFADF80E004BF6C5
:1006C0000153ADF81030FF238DF812308DF8135020
:1006D000009B0593A14406EB890306AA12E90700D3
:1006E00083E8070047F00109524649464046FFF7B4
:1006F000C9FE07B0BDE8F08F574B584A4FF4BE71A2
:10070000574802F035FB574B544A40F28311544886
:1007100002F02EFB29F0010BABEB0303524AA2FBC4
:100720000312D20802EB4202B3EB820F0FD15B46F9
:100730000026DA79AA4212D993F90620002A0DDBA5
:1007400002EB42021E46404B03EB8203F1E7474BAC
:10075000424A4FF4CA71424802F00AFB1E46A6B351
:1007600044F60103ADF80C304FF48F43ADF80E3072
:1007700096F906B0BBF1000F1ADA4BF60150ADF84E
:1007800010008DF812B08DF81350009B0593394678
:10079000301DFFF7BBFEB080B47104EB44042A4B5C
:1007A00003EB840306AA12E9070083E807009BE72E
:1007B000301DFFF78BFE014604EB4402224B03EB96
:1007C0008203181DFFF7A2FED9E74FF42143ADF8CD
:1007D0000C306300019304EB4406DFF86C9009EBE6
:1007E00086061C49B01CFFF791FEADF80E00594675
:1007F000301DFFF78BFEADF810004AF6AA235A46CB
:100800004946521A524153431B0D8DF812308DF850
:100810001350009A0592019B234409EB830906AB10
:1008200013E9070089E8070044F60103ABF800303C
:100830004FF48F43ABF8023047F0010954E700BF93
:10084000FD110020E41A00201C0E002000ED00E045
:10085000110100104C0E002030650010586D001082
:100860008064001058650010ABAAAAAA8065001029
:1008700038B540F00104324BE31A2F2B31D8EFF397
:100880000581C9B2002933D0EFF3108E72B62D4B1B
:10089000D3E8CF5F0122002DFAD1C3E8452F002D08
:1008A000F6D1BFF35F8F4AF6AA230246244D521BAE
:1008B000524153431B0D4FFA83FC234B9B6853F863
:1008C0002130A3421BD00023032B32D803EB43017A
:1008D0001B4A02EB810292F90620624520D00133C7
:1008E000F2E71A4B1A4A40F27F211A4802F040FA06
:1008F000194B174A40F28221164802F039FA124B7E
:100900009B68164A43F82120154B1A78827183F8A8
:1009100000C000230B4AC2E88F3F8EF3108838BD19
:10092000074A02EB8101FF248C714BF601538B8047
:10093000EAE70C4B064A40F29321064802F018FA07
:100940001C0E0020FD11002000ED00E004660010E8
:10095000206D0010806400102C6600101101001042
:10096000E41A00203866001000B583B00146074B3A
:100970000093052300220648FFF727FD002801DB2E
:10098000C0F1330003B05DF804FB00BF4066001007
:10099000E81A0020014B0B4403607047F41100205B
:1009A00010B50446FFF738FD01462046FFF7F2FF79
:1009B000FF232371BFF35F8F10BD10B50446FFF70F
:1009C0002BFD01462046FFF7E5FFFF23237100239F
:1009D0006371BFF35F8F10BD10B50D4C09E00D4B77
:1009E0000D4A1A210D4802F0C3F92046FFF7D8FF3F
:1009F00008340B4B9C4209D22368002BF5D0012B05
:100A0000EDD12046FFF7D9FF0834F2E710BD00BF53
:100A1000BC0E00205C660010B06D00107C660010FB
:100A2000C40E0020024B0B440360BFF35F8F70477E
:100A3000F411002010B504460120FFF7FBFC01462D
:100A40002046FFF7EFFF10BD0246EFF30583DBB250
:100A5000103B990804D0034803F003031360704768
:100A60000148F9E700800B4000000B4010B4846A95
:100A7000A2EB040C0B1D50F823301B1B9C4504D328
:100A8000046A01238B401C4202D1043140F821202A
:100A90005DF8044B704741EA004070470D4B1A68FF
:100AA000EFF3108172B6D2E8CFCF0120BCF1000F76
:100AB000F9D1C2E84C0FBCF1000FF4D1BFF35F8F46
:100AC0001A680023C2E88F3F81F3108840BF0020DE
:100AD00000217047C41A00202DE9F04F85B003A80B
:100AE000FFF7B2FF954B984214BF002301230399EF
:100AF00001EB8303924A52F823402378994206D1AE
:100B0000054601228A4000F541535A602CE18D4B85
:100B10008D4A92218D4802F02BF9D4F8149006EBFF
:100B200046074FEAC70A09EBC707D7F808B0D7F856
:100B30000C80284600F0B4FBB0EB0B0061EB08031F
:100B4000002BC0F21A81B8F1000F64DB3B691A4632
:100B500000937F4B9A4230D0798889B2B4F908006B
:100B6000FFF799FF7969009B9847009001910099E0
:100B7000019A51EA02034ED01346002A29DABBEB50
:100B8000010268EB0308BA60C7F80C8039F90A70F3
:100B9000002FC0F2F280D4F814E007EB47030EEB0D
:100BA000C3039968DB68511A68EB0303002BC0F29A
:100BB000E480A4462CF8087F17E07A691369009254
:100BC0001046984738B3009A13680093536801930E
:100BD000CDE7284600F064FB009B1A18019B43EB0D
:100BE0000108D0E79C463EF90B70002F0EDBBCF9E4
:100BF000003003EB43034FEAC30B0EEBC3039868CB
:100C0000D968101A68EB01010029EBDA29F80A709B
:100C1000ACF80060B1E039F90A3023812369EFF3C1
:100C2000108272B6D3E8CF0F01210028FAD1C3E8B1
:100C3000401F0028F6D1BFF35F8FB4F9023029F8C6
:100C40000A30668021690023C1E88F3F82F3108853
:100C500093E02369EFF3108272B6D3E8CF0F01213E
:100C60000028FAD1C3E8401F0028F6D1BFF35F8FF8
:100C7000B4F804800FFA88F84FF6FF73A380216957
:100C80000023C1E88F3F82F310881AE01F4630F935
:100C90000A60002E0FDBB7F9003003EB43034FEA85
:100CA000C30A00EBC3039968DA68BCEB01016EEB81
:100CB0000202002AEADAA7F8008030F9098020F859
:100CC0000960B8F1000F5DDB606908EB48034FEA8B
:100CD000C30900EBC303D3F808C0D3F80CE004F158
:100CE0000807B4F90860D4E70023A37104F1080CE5
:100CF000B4F9083010E04FF0FF384FF0FF39C0E989
:100D00000289B4F90800984205D0ACF80020B4F983
:100D10000800C85323811346B3F1FF3F35D0616902
:100D200003EB4302D70001EBC20031F932204688C1
:100D300016F4004FDFD18446EDE700BF00800B4082
:100D40009C1A002010670010DC6D00103C6700103A
:100D5000D90A0010284600F0A3FA3F1A66EB0106F4
:100D6000012F76F1000628DA039A01239340EB6302
:100D7000B4F90860002EBFF6D0AEA38813F4004F7C
:100D80003FF467AFA379002BAED1B4F90830002B44
:100D900013DB626903EB430302EBC3039F68DE6866
:100DA000B6F1FF3F08BFB7F1FF3FD3D03A46334615
:100DB00003992846FFF75AFECCE740BF05B0BDE8CF
:100DC000F08F00BFF8B504460D4611460A4B984215
:100DD00010D000262E44012707FA05F5256230467B
:100DE000FFF7FCFB39463046FFF7CEFB04F5015414
:100DF0002560F8BD0426EDE700800B40F8B50446F9
:100E00000E4617461D46C160FFF706FB164B03440E
:100E100023612770ABB263814FF050421278627049
:100E20004FF6FF722281A280013B63804FF0000CDD
:100E300008E00CF1FF300CEB4C0E636923F83E0028
:100E40000CF1010CAC45F4D3084B9E4214BF0023B7
:100E5000012307EB8303064A42F82340054A39463B
:100E60003046FFF7AFFFF8BDF411002000800B40C3
:100E70009C1A0020D90A001008B5054B1B690BB15C
:100E8000034808BD034B044A6521044801F070FF84
:100E9000640E00207C670010C46D00103C670010D9
:100EA000F8B504469E460069EFF3108172B6D0E8AB
:100EB000CF6F0125002EFAD1C0E8465F002EF6D193
:100EC000BFF35F8FB4F90250666905EB4500C700B8
:100ED00006EBC000002D03DB36F907C0A4F802C002
:100EE0004FF0000C2369C3E88FCF81F3108865456C
:100EF00033DB06990161079941618260C0F80CE01B
:100F0000418889B20131C1F30E0101B9012141804B
:100F10002846FFF7C0FD2369EFF3108272B6D3E8CD
:100F2000CFCF0121BCF1000FF9D1C3E84C1FBCF1B8
:100F3000000FF4D1BFF35F8FA388F353A58021691D
:100F40000023C1E88F3F82F31088E36821780122F3
:100F50008A4003F501535A60F8BD4FF0FF30FBE7BC
:100F600070B582B0064615461C469DF8203033B950
:100F700000F0ACF9854264EB010100290ADB079B14
:100F80000193069B00932A4623463046FFF788FFCD
:100F900002B070BD0020FBE7F0B585B005460C46F9
:100FA00016461F46FFF768FF9DF828300293019709
:100FB00000962A462346FFF7D3FF05B0F0BD03464F
:100FC0004089B0EB214F31DD10B50A14586902EBAE
:100FD000420200EBC2001A69EFF3108C72B6D2E83D
:100FE000CF4F5FF0010E002CF9D1C2E844EF002C86
:100FF000F5D1BFF35F8F428892B289B28A420FD097
:10100000002019690022C1E88F2F8CF3108830B1BD
:10101000DA681B780121994002F50153596010BD2F
:1010200042F40042428001209871EAE700207047B4
:1010300010B50446FFF720FF2146FFF7C0FF10BDA3
:1010400040787047F0B583B0EFF30583DBB2CBB9DE
:1010500004460D46861F41F1FF37B04271EB07038E
:1010600001D20026374600F031F9301A67EB010350
:10107000012873F1000308DA2046294600F02EF912
:1010800003B0F0BD1848FFF753F900230093174A47
:1010900030463946FFF780FF002819DAECE7144B99
:1010A0001A68EFF3108172B6D2E8CFCF0120BCF1FD
:1010B000000FF9D1C2E84C0FBCF1000FF4D1BFF31F
:1010C0005F8F1A680023C2E88F3F81F3108820BF2A
:1010D000084B5B6A9F42E2D8064A926AB242CBD280
:1010E0009F42C9D1DBE700BFA06700109D0A001036
:1010F000C41A002000000B4038B504460D4600F02D
:10110000E5F8201845EB0101002902DBFFF79AFF03
:1011100038BD4FF0FF306FF00041F7E708B5C30E60
:101120004101091A63F100039B0043EA91738900AE
:10113000091843F10003DB00C80043EA5171FFF7CF
:10114000DBFF08BDF0B583B005460C46EFF3058321
:10115000DBB293B1384B5B6A8B4209D3364A926A51
:10116000824208D28B4201D0012002E0002000E040
:10117000002003B0F0BD0120FBE7FFF77DFEC7684C
:101180000678384600F08CF82A1A64EB0101043620
:1011900057F826301B1A9A4271F1000112DB20BF6A
:1011A000254B5B6A9C4209D8234A926AAA4207D21D
:1011B0009C4201D00120DCE70020DAE70020D8E7DC
:1011C0000120D6E7002300931C4A28462146FFF75A
:1011D000E3FE002818DD184B5B6A9C4205D8164ACE
:1011E000926AAA4202D29C4200D120BFFFF720FFA0
:1011F000114B5B6A9C421BD80F4A926AAA4219D2D1
:101200009C4213D00120B4E70B4B5B6A9C4209D887
:10121000094A926AAA4207D29C4201D00120A8E75B
:101220000020A6E70020A4E70120A2E70020A0E715
:1012300000209EE701209CE700000B409D0A001063
:101240000048704700000B4010B50A4B1B6923B1E2
:101250000A210948FFF79EFB10BDFFF7F1FF044686
:10126000032100F00BF81023032221460148FFF769
:10127000C5FDEDE7640E0020C41A002010B5054A34
:10128000054C064BA04214BF1846581CFFF784F8C3
:1012900010BD00BFF067001000800B401416002046
:1012A0000246436A906A1946536A9942FAD17047D6
:1012B000416A00E0416A9942FCD300E0416A9942E8
:1012C00002D1816A9142F9D37047000008B5024803
:1012D000FFF7E6FF08BD00BF00000B4008B502465F
:1012E0000B460248FFF7E4FF08BD00BF00000B40BB
:1012F00070B51646049D00EB400C4FEA8C0C0CF1C7
:10130000804C0CF5803CDCF80420AA4201D2CCF8D9
:101310000450A0F1040E5FFA8EFEBEF1010F28D931
:101320000CF540524FF4006414601E4A52F820201D
:1013300042B11C4C6469B4FBF2F4013404EB440484
:10134000033CFDD2DCF8002082EA461202F0E00203
:101350000CF580542260BEF1010F16D90CF5005235
:101360004FF400611160CCF804500E4A42F820306E
:1013700070BD0129D4D10CF5405203241460DCF86F
:10138000082012F0010FFAD0DCE7DCF800204A4018
:1013900002F003022260DCF8084001228A40144275
:1013A000F9D0DBE71816002010B582B04FF4803476
:1013B0000094FFF79DFF02B010BD0000014B53F8F1
:1013C000200070471816002070B5049C344DB5FB02
:1013D000F1FC344D1544344EB54237D8B2FBFCF520
:1013E000A5F1100EBEF5987F36D803F1FF3EBEF191
:1013F000060F37D804F1FF3EBEF1060F32D8BCEB22
:10140000121F35D8240344EA03440368002B35DB5C
:10141000264B984242D00E2301229A40244B1A6058
:1014200003F580531A60234B9B6832EA0303FAD119
:101430000160856000F54052043221231360036887
:10144000002BFCDAC4600823136070BD1A4B1B4AE2
:1014500011211B4801F08CFC1A4B184A192118481D
:1014600001F086FC184B154A1C21154801F080FC40
:10147000164B124A2321124801F07AFC036803F04C
:101480003F038B42C4D18368C3F30B03AB42BFD18C
:10149000C36803F4EE23A342BAD1D6E70F23BBE718
:1014A000001BB70080E84BD380F8A93200800540CC
:1014B000002002400000024014680010F46D00108B
:1014C00064680010AC680010C8680010146900104F
:1014D000024B1A68024B5A60704700BF741A002012
:1014E00000800D4008B5164B4FF080421A60A3F5FE
:1014F0004123144A9A6051B103F540234FF0E06252
:101500001A6048B9104B4FF000421A6008BD0C4BEE
:101510004FF0E0621A60F4E74FF47A7303FB00F0D7
:101520000A4B1860B0F1807F02D36FF07F421A60DF
:10153000FFF7CEFF044B4FF080421A60E6E700BF92
:1015400000B00D40F3FFFF0100A00D40741A002011
:1015500010B50C4B4FF080441C6070B140F001039B
:1015600009480A4CC4610A4C5C40046241628362CF
:1015700000211046FFF7B6FF10BD034B0021D961D3
:10158000F6E700BF00B00D4000800D40D3C007B0AB
:101590002D3FF84F054A00EB400302EB83035960EF
:1015A00000EB400080000123135070470080104082
:1015B0002DE9F04105460E46174698460023DB8A82
:1015C000002242E800F212F4800F0BD1102144F205
:1015D00052209847044643463A4631462846A0479B
:1015E000BDE8F081042144F2522098470446F2E716
:1015F00008B50023DB8A002242E800F212F4800FD3
:1016000002D11021984708BD04219847FBE708B58F
:10161000031E04DB41F020003AB141F030010A46DC
:101620000A214FF48170FFF7C3FF0146F7E700007E
:10163000034BD3F82838002BFAD0BFF35F8F7047E5
:1016400000000E40002207E0054B13449B00BFF34F
:101650005F8F002119600132072AF5D9704700BF5A
:101660000382031008B5FFF7EDFF08BD074B4FF4E9
:101670002A621A604FF48D72DA6003F50053044A4F
:101680001A60024B5B68002BFBDA70470080044055
:1016900000B0FA0010B5044602E054F8043B984745
:1016A000014B9C42F9D310BD20640010704700002C
:1016B00008B50248FFF7EEFF08BD00BFE063001069
:1016C000064B074A1A6003F58053064A1A60064B18
:1016D0009A68044B9343FAD1704700BF0020024040
:1016E0007F3BEFEFF6FFF30300000240054BDB6C9E
:1016F000B3F5004F00D07047034B4FF48022DA64FB
:10170000F9E700BF00001150002011504FF0E02217
:10171000D2F8881D034B0B43C2F8883D10EE30040D
:10172000704700BF03033000054B6FF060421A6042
:10173000044B9B68DB4333F06043F9D1704700BF33
:10174000003002400000024008B545F25320FFF788
:101750004FFF03460420984708BD08B545F25320C3
:10176000FFF746FF03460120984708BD08B5FEF77E
:101770007BFE08BD10B50C490C4A521A9210144653
:10178000442A28BF44229200094804F055FD04E091
:10179000084A074B43F824200134432CF8D9044A63
:1017A000054B9A6010BD00BF000000101001001032
:1017B000000000201101001000ED00E038B5042009
:1017C000FFF7FCFD064BA3FB0035AD0C002404E045
:1017D0002946E0B2FFF7DEFE0134052CF8DD38BD06
:1017E00083DE1B4330B583B0264B0022C3F8842030
:1017F000FFF73CFF244B0122DA63224B5B6C012B89
:10180000FBD1214B03221A631E4B9B6B012BFBD197
:101810000224009405231D4A01211D48FFF7D4FD31
:10182000052500952B461B4A01211B48FFF7CCFDDF
:101830001A4B002221460420FFF7B6FD184C234620
:10184000002201212846FFF7AFFD164D2B4600224E
:1018500011460820FFF7A8FD2B460022114609205B
:10186000FFF7A2FD2346002211460620FFF79CFD4C
:101870002346002211460720FFF796FDFFF79EFF43
:1018800003B030BD0000014000300140002F685916
:1018900000000540008C864700800540001BB70013
:1018A00080D1F008006CDC0286B003B451FC08045F
:1018B000CDE9020151FC0904CDE9040151EC0A040F
:1018C000CDE9060103BCF047BDE800504EEC00C472
:1018D000BDE800504EEC01C4BDE800504EEC02C41F
:1018E00000BD000000B5FFF7DFFF02E010FE30F49E
:1018F000F8D441EC100443EC112400EE010410EE86
:10190000010480EE200451EC1004704700B5FFF78D
:10191000CBFF02E010FE30F4F8D441EC100443ECAD
:10192000112400EE010410EE210480EE200451EC9D
:101930003004704700B5FFF7B7FF02E010FE30F447
:10194000F8D410B541EC100443EC112451EC04041C
:1019500053EC0524A0FB024C5FF0000EE0FB03CE2D
:10196000E1FB02CE4CEC20440024E1FB03E444EC18
:1019700030E480EE200451EC5004BDE81040704784
:1019800000B5FFF791FF02E010FE30F4F8D441EC0F
:10199000100443EC112451EC2104A0FB01126FEA66
:1019A000820252FB100052FB12F252FB1000A0EB1D
:1019B000D07C53EC04245CFB13F153EC1524A1FB05
:1019C000022001FB030053EC4424A2EB000050FB77
:1019D0001CF24FEA111312EB017043EBE27140EA83
:1019E000515020EA915020F0070053EC7524A0FBE1
:1019F000023C53EC752400FB03CC01FB02CC53ECFE
:101A00000424ACEB824C40EA5C70A0F1010041EC94
:101A1000400480EE200451EC7004704700B5FFF7DD
:101A200043FF02E010FE30F4F8D440EC700400EE06
:101A3000010410EE210480EE200451EC30047047C4
:101A400000B5FFF731FF02E010FE30F4F8D440ECAF
:101A5000600400EE010410EE210480EE200451EC3D
:101A60003004704700B5FFF71FFF02E010FE30F4AE
:101A7000F8D441EC800400EE010410EE010480EE85
:101A8000400410EE1304704700B5FFF70DFF02E0AD
:101A900010FE30F4F8D441EC800400EE010410EEA6
:101AA000010480EE400410EE3304704700B5FFF7E8
:101AB000FBFE02E010FE30F4F8D441EC100443ECDD
:101AC000112400EE010410EE3004C0F300707047E2
:101AD00000B5FFF7E9FE02E010FE30F4F8D443EC65
:101AE000102441EC110400EE010410EE30F48CBF20
:101AF00001200020704700BF00B5FFF7D5FE02E0CF
:101B000010FE30F4F8D443EC102441EC110400EE44
:101B1000010410EE30F42CBF01200020704700BFFC
:101B200000B5FFF7C1FE02E010FE30F4F8D441EC3E
:101B3000100443EC112400EE010410EE30F42CBF2D
:101B400001200020704700BF00B5FFF7ADFE02E0A6
:101B500010FE30F4F8D441EC100443EC112400EEF4
:101B6000010410EE30F48CBF01200020704700BF4C
:101B7000704720B108B50A684968904708BD7047AA
:101B80000146002008E000EB8000531C0B60137836
:101B900003EB4003A3F130000A681378303BDBB25B
:101BA000092BF0D970472DE9F04F83B005460E465A
:101BB00093461F46DDF830A00D9CDDF838900F9B52
:101BC00013F0030F19D1A046019208E002F1010BB6
:101BD0003B4631462020A84708F101085A46C8452F
:101BE000F4D3DDF804B008E0013C02F101083B4603
:101BF00031461AF80400A8474246002CF4D10F9B46
:101C000013F0020F09D1104603B0BDE8F08F541C49
:101C10003B4631462020A8472246A2EB0B034B450A
:101C2000F5D3F0E72DE9F04385B099460C9D0D9C66
:101C30009DF83880DDF840E0119F129E16F0020FEB
:101C400021D17FB116F0010F0CD0B8F1000F02D1F5
:101C500016F00C0F06D0013F04E04FF0300C05F8F1
:101C600004C00134744501D21F2CF6D916F0010FBF
:101C700009D0BC4207D21F2C05D84FF0300C05F814
:101C800004C00134F2E716F0100F14D016F4806F80
:101C900004D11CB1744522D0BC4220D00F9B102B24
:101CA00033D00F9B022B3DD01F2C0ED84FF0300CA1
:101CB00005F804C001341F2C07D8B8F1000F39D043
:101CC0004FF02D0C05F804C00134039602970194DF
:101CD00000954B46FFF767FF05B0BDE8F083B4F110
:101CE000010C1DD00F9B102B0ED064460F9B102BA8
:101CF000D7D116F0200FD4D01F2CD2D84FF0580CCB
:101D000005F804C00134CFE7023C16F0200FEDD1F6
:101D10001F2CEBD84FF0780C05F804C00134C3E752
:101D20006446BBE71F2CD0D84FF0620C05F804C006
:101D30000134B9E716F0040F05D04FF02B0C05F86D
:101D400004C00134C1E716F0080FBED04FF0200CDC
:101D500005F804C00134B8E7F0B591B0169C189DA1
:101D60001B9E0CB926F0100616F4806E1DD064B3CD
:101D70004FF0000E19E016F0200F24D04127BC448C
:101D80005FFA8CFCACF10A0C5FFA8CFC0EF10107D7
:101D90000EF1400EEE440EF820CCB4FBF5FCAC4244
:101DA00014D31F2F12D8BE466446B4FBF5FC05FBC6
:101DB0001C4C5FFA8CFCBCF1090FDCD80CF1300C28
:101DC0005FFA8CFCE2E76127D9E7274606961A9C62
:101DD0000594199C049403959DF85C400294019726
:101DE00008AC0094FFF71EFF11B0F0BD2DE9F04FD5
:101DF00095B009900A910B929846DDF878B0DDF81D
:101E00007C90229D239F269E5BEA090201D126F049
:101E1000100616F4806424D05BEA09022FD0002457
:101E20001FE016F0200F28D041231344DBB20A3BF9
:101E3000DBB204F1010A04F150020DEB020404F8D4
:101E4000203C2A463B465846494604F0B1FAAB4589
:101E500079EB070915D3BAF11F0F12D85446834600
:101E600089462A463B465846494604F0A1FAD2B272
:101E7000092AD6D83032D3B2DBE76123D5E74FF059
:101E8000000A0696259B0593249B049303959DF8D1
:101E900080300293CDF804A00CAB009343460B9A1C
:101EA0000A990998FFF7BEFE15B0BDE8F08F000053
:101EB0002DE9F04F93B004460D4617461E46DDE966
:101EC0001CAB52465B4650465946FFF7F3FD0028CF
:101ED00040F0F3804FF0FF32AD4B50465946FFF7CC
:101EE00037FE002840F0E9804FF0FF326FF4801396
:101EF00050465946FFF7F0FD002840F0DE800022F2
:101F0000002350465946FFF7E7FD002840F0E680E1
:101F1000CDE906AB209B13F480630F9301D1062318
:101F20001E93DDE9062310461946CDE90A01079BF9
:101F300052EA030100F0DC80C3F30A50C3F3130339
:101F4000904643F07F5949F44019A0F2FF30FFF763
:101F500069FD7DA3D3E90023FFF7F0FC7CA3D3E95F
:101F60000023FFF7C3FCCDE908010022894B40465E
:101F70004946FFF7CFFC78A3D3E90023FFF7DEFC47
:101F800002460B46DDE90801FFF7B0FCFFF76EFDE6
:101F90000890FFF747FD8046894671A3D3E90023E7
:101FA000FFF7CCFC00227C4BFFF7A0FCFFF75EFDA7
:101FB0000A906DA3D3E9002340464946FFF7BEFCD3
:101FC000804689460A98FFF72DFD69A3D3E90023CF
:101FD000FFF7B4FC02460B4640464946FFF79AFC21
:101FE0008046894602460B46FFF7A8FCCDE90C0166
:101FF0000A9B03F2FF3300210022CDE90A121B05E0
:102000000B9300230A9342464B4640464946FFF74E
:102010006DFCCDE9100142464B4600204FF0804157
:10202000FFF778FC8046894600225C4BDDE90C0115
:10203000FFF7AAFC00225A4BFFF758FC02460B465A
:10204000DDE90C01FFF7A0FC0022564BFFF74EFC28
:1020500002460B46DDE90C01FFF796FC02460B46F3
:1020600040464946FFF742FC02460B46DDE91001B7
:10207000FFF78AFC00224C4BFFF738FCDDE90A230E
:10208000FFF75CFC80468946CDE90A89DDE9062335
:10209000FFF75EFD50B1089B013B08930022404BC7
:1020A00040464946FFF770FCCDE90A01089B6333BF
:1020B000C62B46D84FF004081EE0209B04931F9BBC
:1020C00003931E9B0293CDE900AB33463A46294663
:1020D000204600F0FDF813B0BDE8F08F9FED267BA1
:1020E0008DED067BCDF818A00BF10043079311E7A7
:1020F000002308934FF00408209B13F4006F5FD077
:10210000DDE90A1213460B4313D01DA3D3E90023C4
:10211000DDE90601FFF708FD002800F0B4801AA3EE
:10212000D3E90023DDE90601FFF7D6FC002800F023
:10213000AA801E9A089B9A4238DDD31A013B1E934F
:1021400036E04FF00508D7E7FB799F501344D33FA3
:10215000B3C8608B288AC63F61436F63A787D23FAD
:1021600071A379094F930A401655B5BBB16B024074
:10217000EF39FAFE422EE63F0000000000000000AA
:102180002D431CEBE2361A3F0000000080842E41F4
:10219000FFFFEF7F0000F83F0000E03F00002C4011
:1021A00000002440000018400000F03F00231E9370
:1021B000209B43F4806320934FF00008CDF82080EB
:1021C0001F9B984569D2A3EB0809209B13F00203DB
:1021D0000C9304D0B8F1000F01D04FF00009089B18
:1021E0003BB1DDE90A23DDE90601FFF7CDFBCDE9CF
:1021F00006010022002350465946FFF76DFC0028D7
:102200004ED1209B23F400630493CDF80C901E9BC9
:1022100002939DED067B8DED007B33463A462946C1
:10222000204600F055F8B8F1000F3FF454AF209B62
:1022300013F0200F3CD04FF0450C00F1010933465C
:10224000024629466046A047089981EAE172A2EB5E
:10225000E1720523059308F1FF33049300230393F0
:102260000A230293CB0F0193009233464A46294634
:102270002046FFF771FD0C9B002B3FF42CAF02466C
:10228000DDF87C901EE01E9B002B99D00F9B002B4D
:1022900096D01E9B013B1E9392E74FF0000994E7F6
:1022A000DDE90601024601F10043CDE90623A8E776
:1022B0004FF0650CC1E702F10108334629462020A2
:1022C000A0474246D31B4B45F5D3104603E700BF5A
:1022D0002DE9F04F2DED028B95B007900A919246B3
:1022E0009B46DDE92089229D42464B4640464946B1
:1022F000FFF7E0FB002835D14FF0FF326FF4801379
:1023000040464946FFF7E8FB00283AD14FF0FF323C
:10231000B14B40464946FFF71BFC002840D1AAA319
:10232000D3E9002340464946FFF712FC00284DD16F
:10233000A7A3D3E9002340464946FFF7CDFB002879
:1023400044D10022002340464946FFF7C5FB002840
:102350004AD100230B93249B13F4806F00F0B580C7
:10236000002454E0249B0393239B029303230193B3
:102370009A4B00935B4652460A990798FFF713FC65
:102380001BE1249B0393239B029304230193944B0F
:1023900000935B4652460A990798FFF704FC0CE14C
:1023A000249B13F0040F0ED08E4B0422249903912A
:1023B00023990291019200935B4652460A9907982D
:1023C000FFF7F1FBF9E0884B0322EFE7249B04932E
:1023D000239B03930295CDE900895B4652460A99F7
:1023E0000798FFF765FDE8E042464B4600200021D4
:1023F000FFF790FA8046894601230B93ABE704F17F
:1024000050036B44302203F8202C013D01341F2C73
:1024100001D8092DF3D840464946FFF727FB064669
:10242000FFF700FB02460B4640464946FFF772FAAB
:102430006E4B03EBC50393ED008B53EC182BFFF7AA
:102440007DFA02460B46CDE90823FFF721FB07463C
:10245000FFF7FAFA02460B46DDE90801FFF75AFAE0
:1024600002460B46CDE908230022614BFFF770FBC3
:1024700068B301373846FFF7E7FA02460B4651ECDE
:10248000180BFFF73DFB08B1013600276DBB304646
:10249000FFF7C8FA02460B4640464946FFF73AFAAC
:1024A000074688460022524BFFF716FB00284CD106
:1024B00000224F4B38464146FFF74AFB002844D1E3
:1024C00016F0010F41D001363FE0062548E7002213
:1024D000474BDDE90801FFF7FFFA0028D6D117B115
:1024E00017F0010FD2D00137D0E71F2C17D8013DCC
:1024F000404BA3FB0723DB08194603EB8303A7EB41
:102500004303621C303304F150000DEB000404F867
:10251000203C092F02D90F461446E6E714461F2C2B
:102520000AD86B1E45B104F150026A44302102F80A
:10253000201C1D460134F2E71F2C06D804F150037D
:102540006B442E2203F8202C01341F2C17D82A4A62
:1025500082FB0632F317C3EBA2031A4603EB830395
:10256000A6EB4303611C303304F150000DEB000473
:1025700004F8203C16460AB10C46E6E70C46249BBC
:1025800003F00303012B39D01F2C09D80B9B002B20
:1025900051D004F150036B442D2203F8202C013458
:1025A000249B0393239B029301940CAB00935B4603
:1025B00052460A990798FFF7F6FA15B0BDEC028B60
:1025C000BDE8F08FAFF300800000000065CDCD4185
:1025D0000000000065CDCDC1FFFFEF7F80690010D6
:1025E00084690010746900107C690010606E00102E
:1025F0000000E03FCDCCCCCC67666666239BB3B1D0
:102600000B9B1BB9249B13F00C0F12D0239B013B97
:102610002393194606E004F150036B44302203F87B
:10262000202C01348C42AFD21F2CF4D9ACE7239973
:10263000F8E72399F6E7249B13F0040F07D004F181
:1026400050036B442B2203F8202C0134A8E7249B71
:1026500013F0080FA4D004F150036B44202203F8B8
:10266000202C01349CE700BF2DE9F04F8FB080464D
:1026700017460D938946002900F04F83002508E096
:102680006C1C3B462A464946C0470D9B01330D93BF
:1026900025460D9B1878002800F042832528EFD1AD
:1026A00001330D9300261FE046F0010601320D9222
:1026B000012318E046F0020601320D92012312E0D8
:1026C00046F0040601320D9201230CE046F00806A4
:1026D00001320D92012306E046F0100601320D9200
:1026E000012300E000234BB30D9A1378203B102BFD
:1026F000F8D801A151F823F0CD260010E5260010EE
:10270000E5260010D9260010E5260010E526001069
:10271000E5260010E5260010E5260010E52600104D
:10272000E5260010C1260010E5260010B526001091
:10273000E5260010E5260010A92600100A930D9B3F
:102740001A78A2F13003DBB2092B18D92A2A1BD040
:102750000A9B0B930D9B1A782E2A25D00D9A13787D
:10276000683B122B5CD8DFE803F0495BAC5B3B5B5A
:102770005B5B5B5B5B5B575B5B5B5B5BB1000DA8B3
:10278000FFF7FEF90B90E5E7189B1A1D18921B68DE
:10279000002B04DB0B930D9B01330D93DAE746F01E
:1027A00002065B420B93F6E746F480665A1C0D92D4
:1027B0005A78A2F13003DBB2092B0CD92A2ACDD1E9
:1027C000189B1A1D18921C6824EAE4730A930D9B47
:1027D00001330D93C2E70DA8FFF7D2F90A90BDE7C8
:1027E00046F48071531C0D9353786C2B01D00E4628
:1027F00016E046F4407602320D9211E046F0800178
:10280000531C0D935378682B01D00E4608E046F018
:10281000C00602320D9203E046F4807601320D923A
:102820000D9B1878672856D82528C0F06C82A0F137
:102830002503422B00F26782DFE813F05A0265029B
:102840006502650265026502650265026502650250
:102850006502650265026502650265026502650240
:102860006502650265026502650265026502650230
:1028700065026502650265026502650288016801FC
:1028800088016502650265026502650265026502EE
:102890006502650265026502650265026502650200
:1028A00065027100650265026502650265026502E6
:1028B0006502650265027100AF017100880168015F
:1028C000880146F4007601320D92A9E746F480763D
:1028D00001320D92A4E7782800F215826928C0F031
:1028E0001282A0F16902D2B20123934049F241025F
:1028F000134214D113F0800F40F0DF8113F4806F86
:1029000000F00182189B1A1D1892D3F800A00A9BB0
:10291000002B40F090814FF0FF32534674E16F2856
:102920003DD005D858283CD0622803D1022304E0CA
:10293000782838D026F010060A23582835D0692880
:1029400003D0642801D026F00C0616F4806F01D065
:1029500026F0010669282BD0642829D016F4007FC0
:1029600040F0968016F4807F40F0AE8016F0400F65
:1029700000F0BF80189A111D1891127805960B99D6
:1029800004910A99039102930023019300923B461C
:102990002A4649464046FFF7DFF9054629E0082365
:1029A000CBE71023C9E71023C7E746F02006C6E7A8
:1029B00016F4007F21D116F4807F42D116F0400F2B
:1029C00058D0189A111D1891127882EAE271A1EB81
:1029D000E27105960B9804900A9803900293D20F27
:1029E000019200913B462A4649464046FFF7B4F91A
:1029F00005460D9B01330D934BE6189A073222F0E2
:102A0000070202F10801189151681268084600296E
:102A100013DB08960B9C07940A9C069404930023EE
:102A20000593C90F0291009201903B462A46494600
:102A30004046FFF7DBF90546DBE7524261EB410018
:102A4000E7E7189A111D1891126882EAE271A1EB6A
:102A5000E27105960B9804900A9803900293D20FA6
:102A6000019200913B462A4649464046FFF774F9D9
:102A70000546BEE716F0800F05D0189A111D189173
:102A8000B2F90020A1E7189A111D189112689CE76D
:102A9000189A073222F0070202F1080118910896ED
:102AA0000B9907910A9906910021049305910291CF
:102AB000D2E90023CDE900233B462A464946404659
:102AC000FFF794F9054694E7189A111D1891059699
:102AD0000B9904910A9903910293002301931368BF
:102AE00000933B462A4649464046FFF735F90546DE
:102AF0007FE716F0800F04D0189A111D18911288E4
:102B00003CE7189A111D1891126837E746281AD029
:102B1000189B073323F0070303F108021892049669
:102B20000B9A03920A9A0292D3E90023CDE900237B
:102B30003B462A4649464046FFF7CAFB05460D9BE1
:102B400001330D93A5E546F02006E1E7672801D0A3
:102B5000472801D146F40066452801D0472801D115
:102B600046F02006189B073323F0070303F1080201
:102B7000189204960B9A03920A9A0292D3E90023C0
:102B8000CDE900233B462A4649464046FFF790F9E7
:102B900005460D9B01330D937BE516F002061CD014
:102BA00001241898031D189305F1010A3B462A4693
:102BB00049460078C047AEB90D9B01330D93554689
:102BC00067E5551C3B4649462020C04723462A4618
:102BD0005C1C9A45F5D81546E3E70123DDF82CA0E7
:102BE0002A46F5E75246DDF82CA006E0561C3B4687
:102BF00049462020C0472C463246651CA245F5D8E0
:102C00009246D9E701330A46197811B1511E002ABC
:102C1000F8D1A3EB0A0316F4806B03D00A9A93420F
:102C200028BF134616F0020407D00C940A9E2A46C9
:102C30005D469B4623E00A9A6FE6CDF830B02A46FF
:102C400025460B9C07E002F1010B3B46494620203C
:102C5000C04733465A465E1C9C42F4D8DDF830B07B
:102C60002C4633460C940A9E5D469B4607E01E4662
:102C70000AF1010A541C3B464946C04722469AF8CD
:102C8000000020B1002DF3D0731E002EEFD10C9C5C
:102C900015465B461CB90D9B01330D93F9E40B9E61
:102CA00006E0551C3B4649462020C04723462A469D
:102CB0005C1C9E42F5D81546EDE746F02106189BB0
:102CC0001A1D18921B680596082204920A9A03920C
:102CD000102202920022019200933B462A46494666
:102CE0004046FFF739F805460D9B01330D93D0E4BC
:102CF0006C1C3B462A4649462520C0470D9B0133A4
:102D00000D932546C5E46C1C3B462A464946C04700
:102D10000D9B01330D932546BBE4DFF82080ADE425
:102D2000BD4208D37A1E3B4649460020C04728468C
:102D30000FB0BDE8F08F2A46F5E700BF711B001009
:102D400000B585B002900391009313464FF0FF3217
:102D500002A90348FFF788FC05B05DF804FB00BF3B
:102D6000731B001000BEFDE708B5FFF7FBFF000076
:102D700000B583B08C4619465AB11446064B0194EF
:102D8000009363460246054800F056F90120FFF71C
:102D9000E9FF034B1C46F2E78C6900109C690010A8
:102DA0009869001010B5EFF30583DBB203B100BEE4
:102DB000FEF77EFC044C02E054F8043B9847034BBA
:102DC0009C42F9D310BD00BF20640010286400109D
:102DD00008B5034608461B681146984708BD000021
:102DE000F8B507460D461646437D13B1002420462C
:102DF0000CE003681146284698472EE03B7D10E022
:102E00003B68022115489847601C0134B44214DA2B
:102E1000002CF3DD2B1913F8013C0D2B14BF0023FC
:102E200001232A5D0A2AF0D1002BEED1A042E7DA75
:102E30003B68211A28449847E2E7B04203DA3B682E
:102E4000311A28449847002E07DD354415F8013C17
:102E50000D2B14BF002301233B75F8BDB06E00108D
:102E600038B50368BBB105460B4B1C6806E0294624
:102E700051F8042B2046FFF7B3FF24694CB12368B7
:102E8000002BFAD0054B1B68002BF0D0A342F4D1E5
:102E9000EDE700232B6038BD681600207016002077
:102EA00038B505460C460B68802B05D023685A1CA4
:102EB00022601C44257138BD0846FFF7D1FFF5E7B5
:102EC00008B5FEF703FA074A821841F10003002B08
:102ED00003DB054803F07CFA08BD4FF0FF326FF0CA
:102EE0000043F6E740420F00BC0E002008B5024840
:102EF00003F062FA08BD00BFBC0E00202DE9F043CC
:102F000083B006460D4690461C46FFF7D9FF814622
:102F1000B5F1FF3F04D044B1174F184B1C6807E0D0
:102F2000304603F0FFF90546F5E7154FF5E724694C
:102F3000BCB12368002BFAD0124B1B680BB1A34223
:102F4000F5D12A4631462046B847B8F1000FEED0F9
:102F50000A238DF8073001220DF107012046B847FA
:102F6000E5E7B9F1000F03D1284603B0BDE8F083CF
:102F7000FFF7BCFFF8E700BFE12D00106816002046
:102F8000D12D001070160020094A136802E003F1E9
:102F900010021B6943B113688342F8D131B9036948
:102FA000136000230361704701B11060704700BFD8
:102FB0006816002010B5054B1C6800E0246924B198
:102FC0006368002BFAD09847F8E710BD6816002018
:102FD00008B500F0ADF908BD38B5054603F0A2F913
:102FE000044601231A4601462846FFF787FFFFF7EC
:102FF000E1FF204638BD0000F0B5A3B004460E4600
:10300000FFF75EFF05460023019301AF33462246DA
:1030100039460848FFF794FE04463846FFF720FF7C
:10302000FFF7C8FF15B9204623B0F0BDFFF75EFFDC
:10303000F9E700BFA12E00100FB400B583B004A9BA
:1030400051F8040B0191FFF7D7FF03B05DF804EBD3
:1030500004B0704770470000014B00221A7070479F
:10306000E51A00204B79FF2B0BD18B795BB9CB791B
:10307000012B0AD1082A0AD98A78064B1A7009202E
:1030800070470020704700207047002070470020E4
:10309000704700BFE51A002001207047012923D1A5
:1030A00008B59188114B1B78994201D0002008BDCA
:1030B0005378012B03D0022B0FD00020F7E7518863
:1030C00011F4807F06D0480AC1F3402201F07F014D
:1030D000FEF79DFA4FF0FF30F6E764220021084624
:1030E000FEF736FA0120E2E701207047E51A0020DA
:1030F000004870477C6F001001290FD108B5944635
:103100005378012B0CD19388072B01D0002008E0C5
:10311000A623044A614601F0EFFB02E0012070475C
:10312000002008BDD46E00100123037000487047D2
:10313000B46E001008B50B68B3F5966F00D008BDEB
:10314000002211464FF0FF30FEF761FA024B186083
:10315000024B1960704700BF081600200C160020B3
:1031600008B5FEF7B3F80E4A821841F10003002BB0
:1031700011DB0C4803F02CF960B100214FF0FF3057
:1031800001F042FA002001F03BFD0028F5D105488E
:1031900003F012F908BD4FF0FF326FF00043E8E78B
:1031A00040420F00C81A002038B5184B1B681BB3EB
:1031B000EFF3108272B6D3E8CF0F01210028FAD1C5
:1031C000C3E8401F0028F6D1BFF35F8F0F494A6064
:1031D00000230F4803700968C1E88F3F82F310880D
:1031E000002400250B4B1878FDF7AEF940B90024F8
:1031F00000252046294638BD4FF47A740025F1E7B2
:10320000044B1878FDF7CAF9F3E700BF941A0020C1
:10321000E71A0020E61A002008B5024B1878FDF7DF
:10322000BDF908BDE61A002070B584B00646144604
:103230001D46FEF74BF8221845EB0103002B0BDB74
:103240009DF8281002910999019108990091304642
:10325000FDF786FE04B070BD4FF0FF326FF0004303
:10326000EEE7F0B585B005460C4616461F46FDF75D
:1032700003FE9DF828300293019700962A462346C4
:10328000FFF7D2FF05B0F0BD10B582B00021224893
:1032900003F0A2F800BB214B1B68DBB1EFF31082F7
:1032A00072B6D3E8CF0F01210028FAD1C3E8401F3E
:1032B0000028F6D1BFF35F8F18494A601848037899
:1032C000DBB20124047008680021C0E88F1F82F37C
:1032D0001088BBB102B010BD00214FF0FF3001F0EB
:1032E00093F9002001F066FC04460B4803F064F8F3
:1032F000002CEFD00B4B1B68002BEBD00A4A106858
:103300009847E7E700940B46084A4FF47A7000218B
:10331000FFF7A7FFDEE700BFC81A0020941A0020BD
:10332000E71A0020081600200C160020A931001012
:1033300010B582B04FF050431C68FDF79DFDFDF7BE
:103340007FFEA0422DD1244B1B780021084602F0BD
:10335000F9F8224B1B6853B30120FDF705FBC0B2FF
:103360001F4C20701F49FDF739F901212078FDF726
:103370000BF90E20FDF726F90446E0B10120FDF718
:1033800059F801461848FDF74DFB002217490E2059
:10339000FDF754F901211648FFF7F6FD204602B06B
:1033A00010BD144B144AC6211448FFF7E1FC0B482A
:1033B000FDF7F6FAD0E70C4A0023136053600122B0
:1033C00000920F4A4FF47A700021FFF74AFFC4437E
:1033D000E40F002CE2D0DDE700730010C81A0020D3
:1033E000E61A002089320010941A002019320010C9
:1033F0007C0E0020CC690010AC6F0010D469001066
:10340000A931001008B5002001F0BAFB08BD00008A
:1034100038B504460D46FFF7F5FF90B3002001F0E4
:10342000C9FB88B3FDF752FF1A4A821841F1000325
:10343000002B16DB184802F0CBFF40B3FFF7E2FF8A
:1034400018B1002001F0B6FB80B900214FF0FF3029
:1034500001F0DAF86FF002040F4802F0ADFF2046E9
:1034600038BD4FF0FF326FF00043E3E72A462146B4
:10347000002001F0ABFB04460028EDD16FF0020400
:10348000EAE76FF00204EAE76FF00204E7E76FF0A3
:103490000204E4E740420F00C81A0020F8B50746CE
:1034A0000D46FDF713FF2E4A821841F10003002B51
:1034B00004DB2C4802F08CFF28B9F8BD4FF0FF3236
:1034C0006FF00043F5E7FFF79DFF002845D1264B3D
:1034D00000200021C3E90001224802F06DFFECE763
:1034E00000214FF0FF3001F08FF8002001F088FB41
:1034F000FFF788FF0028EFD0002001F0FFFBF8B1B4
:10350000AC42E9DA2E1B002001F0F8FB864200DC19
:1035100030460028E4D002463919002001F0CCFBE7
:10352000064600214FF0FF3001F06EF8002001F058
:1035300067FB3444FDF7CAFE0B4BC3E90001DFE72C
:10354000FDF7C4FE084A13685268084E9B1942F101
:10355000000283428A41D3D2BEE70024D0E700BFF5
:1035600040420F00C81A00204810002020A1070088
:10357000004870472870001000487047D46F001052
:1035800010B50446144B1B786BB18CB9134B40F249
:1035900009425A80012301335B009BB20F4843F478
:1035A0004073038010BD11210B4800F047F8ECE791
:1035B000052C0ED80A4B53F824000023122BEAD80E
:1035C000C25C002AE7D00133044921F81320DBB2A2
:1035D000F4E70020E6E700BFD01A002040160020E4
:1035E000BC6F001000B58BB045F24730FEF700F815
:1035F00003460122092101A89847042801D100238C
:103600000EE00A4B0A4A2F210A48FFF7B1FBC3F12B
:103610000F0228326A4412F8241C074AD15401339D
:10362000072BF4DD0BB05DF804FB00BF646A0010EB
:103630005C7000106C6A0010BC1A002008B511B153
:103640008C46002208E0104B104A3B211048FFF73F
:103650008FFB3733835401320CF1FF3393420FD980
:103660000F2A0DD853080B49CB5CD14301F001015F
:1036700089000B4103F00F03092BEADC3033E9E743
:103680000023835408BD00BFBC6A00103C700010CA
:103690006C6A0010BC1A002030B400F07F05C3092A
:1036A0004FEA450C0CEBD01C244C04EB4C1C8CF862
:1036B000020083F001008CF8010000208CF8030068
:1036C000ACF818108CF81B20DBB9EA001C49114437
:1036D00003EB4500194A02EB4012916003EB4501F0
:1036E000164A02EB41129268002111607DB903EB8A
:1036F0004502124B03EB42135960124ADA6030BCA8
:103700007047114901EBC501CCF80810E6E753B941
:103710006A1ED2000D49114403EB4503074A02EB30
:1037200043135960EBE7691E094A02EBC10203EB40
:103730004501024B03EB41135A60E0E77416002089
:103740008400105000011050800010500C001050E8
:103750000800105008B5038B3F3323F03F03C27EAF
:10376000022A08D008490A68C26013440B60074A5D
:10377000934202D808BD5B00F4E7054B054A52218D
:103780000548FFF7F5FA00BF781A0020FF0F105028
:10379000C46A0010A8700010086B001070B500F02B
:1037A0007F054FEA450C0CEBD0130C4C04EB431493
:1037B000FFF772FF05B970BD218B2046FFF7CAFFE6
:1037C000E27EE36883F0A04383F4801343EA8263DC
:1037D00043F0004362681360EDE700BF74160020F9
:1037E00008B500F07F035B0003EBD010024B03EB46
:1037F000401000F01BF908BD7416002008B520B970
:1038000001210E20FCF7C0FE08BD034B034A40F225
:1038100097110348FFF7ACFA786B0010987000100E
:10382000086B001008B528B9002211468020FFF768
:10383000D7FF08BD034B044A40F2A1110348FFF72C
:1038400097FA00BF786B001088700010086B0010AA
:10385000024B4FF48032DA64704700BF00201150F1
:1038600070B548BB064600F0C1F8174C0C23A3679F
:10387000FF2216490E20FCF7E1FE40252A460021D2
:10388000134802F08BFC002229461046FFF786FF02
:10389000002229468020FFF781FF02F081FD0125EB
:1038A00025644FF00053E3640A4BC4F8903030466F
:1038B000FFF7CEFF284670BD074B084A40F2631160
:1038C0000748FFF755FA00BF000011509903002088
:1038D0007416002010D00100786B0010BC7000102E
:1038E000086B0010044B197021B1044B4FF40032E7
:1038F000C3F89020704700BFE21A0020002011504A
:103900000B7813F07F0F02D14B78052B00D0704756
:103910004B88DBB2014A1360F9E700BF0000115089
:10392000CA7802F00302012A09D008B50B4689883B
:10393000C1F30A019878FFF731FF012008BD00208C
:10394000704708B502F02CFD08BD000010B530B975
:10395000084611461A46FFF743FF012010BD034BEE
:10396000034A4FF401710348FFF702FA786B001025
:1039700078700010086B001008B511F07F0304D1B7
:10398000CA090ED10220084A90665B0003EBD113EE
:103990004FF400620021054800EB431002F014FDD3
:1039A00008BD0120EFE700BF002011507416002071
:1039B00008B511F07F0300D108BD5B0003EBD11304
:1039C000044800EB43100022C2706FF4006102F063
:1039D000FBFCF1E77416002004E011F8012B00F85D
:1039E000012B1A46531E002AF7D1704708B54FF035
:1039F00080530A4A136002F580521360084B9B689B
:103A000013F0805FFAD04FF480520021054802F095
:103A1000C5FB054B09225A6708BD00BF00200240C4
:103A200000000240000010500000115070B5044624
:103A30000D461646837EABB9A6820023E38201239E
:103A4000A3762561204602F0AFFC20B10B4B4FF46A
:103A50000032C3F89020204602F0B2FC50B101239E
:103A6000237770BD81780648FFF7E6FA204602F01A
:103A70008BFCE1E7204602F08FFCF2E700201150BA
:103A8000686C001038B50546002408E0D21A1B4BBC
:103A900003EB4213DB68284698470134E4B2184B25
:103AA0001B782246591CA14215DBA342EED9154BC7
:103AB0001B6813EB4413EDD140F225221249134841
:103AC000FFF7BAFA4FF0E023D3F8F03D13F0010FFF
:103AD00013D000BE11E00E4C54220021204602F00B
:103AE0005DFB4FF0FF336360A360E360236120223E
:103AF000FF2104F1140002F051FB38BD9071001059
:103B0000E11A0020501000205C710010A06C001021
:103B10002012002008B5FFF7B5FF00F043FF08BDF5
:103B200070B505460C461646486900F045FF6369C6
:103B3000324601212846984770BD00002DE9F04F1C
:103B400083B08246481EC0B2FFF716FD20B18346FF
:103B500043780193022B11D040F2D6326249634878
:103B6000FFF76AFA4FF0E023D3F8F03D13F0010FAE
:103B700000D000BE002003B0BDE8F08FC279C2F3D0
:103B800040105B4B197860F304111970C2F3801276
:103B9000C9B262F3451119700BF10908BBF8023084
:103BA0009B447BE098F8033098F8002090447DE037
:103BB00040F2F1324C494D48FFF73EFA4FF0E02316
:103BC000D3F8F03D13F0010F00D000BE0020D2E783
:103BD000F31A484A02EB4319D9F810302A464146F5
:103BE00050469847082801D985421ED20134E4B2D4
:103BF000414B1B7826465A1CA2424ADBA342E7D916
:103C00003E4B1B6813EB4419E6D140F2FA323649B9
:103C10003648FFF711FA4FF0E023D3F8F03D13F0E8
:103C2000010F00D000BE0020A5E73B464F4681466D
:103C3000012B11D000218B4224D998F802200A448C
:103C4000D2B22B4810440079FF280BD128480244F7
:103C500014710131C9B2EEE73969294A9142E9D1BB
:103C6000019BE7E740F219421F492048FFF7E4F9BA
:103C70004FF0E023D3F8F03D13F0010F00D000BE69
:103C8000002078E723464A4641461E4801F066FD7B
:103C9000C844194B1B7801339E4212DCD84520D210
:103CA00098F801300B2B3FF47DAF012398F80120E9
:103CB000042A7FF47DAFABEB0805ADB200241F46AC
:103CC00096E74FF4856208490848FFF7B5F94FF0C9
:103CD000E023D3F8F03D13F0010F00D000BE002028
:103CE00049E7012047E700BF30710010A06C0010C9
:103CF0002012002090710010E11A002050100020C6
:103D0000754E001034120020704770470020704735
:103D10000020704738B505460C464B881A0AD8B2C1
:103D2000531E0E2B64D8DFE803F0082D4E63635951
:103D30002D636363636363632200FFF719FC02462C
:103D400028B112232146284600F0D6FD51E040F26A
:103D50003A422C492C48FFF76FF94FF0E023D3F893
:103D6000F03D13F0010F00D000BE002041E0FFF74E
:103D7000BFF9024600283DD043882146284600F07E
:103D8000BBFD36E0022A09D0FFF7C2FF024698B316
:103D900053882146284600F0AFFD2AE0FFF7ECFBF0
:103DA00002460028F4D140F2614216491648FFF756
:103DB00043F94FF0E023D3F8F03D13F0010F00D0AA
:103DC00000BE002015E0A188FFF7DAFB0246A8B18B
:103DD00003782146284600F08FFD0AE0FFF796FFA2
:103DE000024668B103782146284600F085FD00E0D0
:103DF000002038BD0020FCE70020FAE70020F8E7AB
:103E00000020F6E718710010A06C00107047704792
:103E100070477047034B5878C0B2003818BF012074
:103E2000704700BF20120020024B1878C0F38000BA
:103E3000704700BF20120020024B1878FF3818BFCF
:103E400001207047B00E0020F8B506460D46FFF77A
:103E5000F3FF0746002854D105B354220021374808
:103E600002F09CF9364B00221A70364C2046FCF7C3
:103E700097FD354B1C60354C2046FCF7DBFD143CB0
:103E8000204602F025F8324B1C60324B23B13248F9
:103E9000FFF74AF9314B1860002417E04FF4E9723C
:103EA0002F493048FFF7C8F84FF0E023D3F8F03D32
:103EB00013F0010F25D000BE23E0D21A2A4B03EBEA
:103EC00042135B687BB198470134E4B2224B1B7804
:103ED0002246591CA14216DBA342EED91F4B1B6898
:103EE00013EB4413EDD14FF4F8721D491D48FFF751
:103EF000A3F84FF0E023D3F8F03D13F0010F00D00A
:103F000000BE3846F8BD194B1E7029463046FFF7F3
:103F1000A7FC074618B13046FFF770FCF1E74FF4F5
:103F2000FC720F490F48FFF787F84FF0E023D3F8F2
:103F3000F03D13F0010FE4D000BEE2E720120020B4
:103F4000E31A00201812002074120020A80E00208E
:103F50007812002029310010E11A002050100020B2
:103F600080710010A06C001090710010B00E002045
:103F700070B51A4B1E788B7813F0700F0ED10C466B
:103F8000174B9978204601F079FB0546B0B12146E0
:103F90003046FFF7C5FC0546284670BD40F20B527F
:103FA00010491148FFF748F84FF0E023D3F8F03DEF
:103FB00013F0010F00D000BE0025EDE740F20C52D7
:103FC00008490948FFF738F84FF0E023D3F8F03DEF
:103FD00013F0010FE0D000BEDEE700BFB00E0020FE
:103FE00020120020E8700010A06C00102DE9F84F9E
:103FF00080460C4616461F46DDF82890DDF82CA0BA
:10400000002526E040F2E7421F492048FFF714F858
:104010004FF0E023D3F8F03D13F0010F00D000BEC5
:104020004FF0000B5846BDE8F88F4FF49D621649DB
:104030001648FFF701F84FF0E023D3F8F03D13F0F6
:10404000010FEFD000BEEDE78AF8003023781C4462
:104050000135AE4214DD6378052BD3D1E17801F050
:104060000301B942CED121464046FFF781FF834686
:104070000028DAD0A378DA09E6D189F80030E5E73C
:104080004FF0010BCEE700BFF8700010A06C0010DD
:1040900008B501F07F00400000EBD1103030044B38
:1040A0001844044B1968043001F0A2FA08BD00BF9F
:1040B000201200207412002008B501F07F0040009B
:1040C00000EBD1103030044B1844044B1968043015
:1040D00001F0B6FA08BD00BF2012002074120020C3
:1040E00070B51F48007801F07F051E4C04EB450CAD
:1040F0000CEBD11C9CF8344014F0010F1FD1CE09F9
:10410000184C04EB4504344494F834C04CF0010CD2
:1041100084F834C03034FFF719FCF8B9227922F062
:1041200001022271227922F0040222714FF0E02371
:10413000D3F8F03D13F0010F10D000BE0EE040F2B6
:10414000395209490948FEF777FF4FF0E023D3F8C9
:10415000F03D13F0010F00D000BE002070BD00BF85
:10416000B00E002020120020D8700010A06C0010AB
:1041700038B501F07F05CC090A4B1878FFF7FCFB36
:10418000094B03EB4503234493F8342042F0020229
:1041900083F8342093F8342042F0010283F834206D
:1041A00038BD00BFB00E00202012002038B501F04D
:1041B0007F05CC090A4B1878FFF7FAFB094B03EB94
:1041C0004503234493F8342022F0020283F834207C
:1041D00093F8342022F0010283F8342038BD00BF68
:1041E000B00E00202012002001F07F02044B03EBF0
:1041F000420303EBD11191F83400C0F34000704743
:10420000201200202DE9F04182B006460C46002025
:1042100000F0D2FB237803F06003602B21D0402B09
:1042200032D0227802F01F02012A00F00181022A16
:1042300000F04281002A40F0C981202B2ED0002BB3
:104240004DD16378092B00F2E880DFE813F0D3004A
:10425000C300E600B300E6005200AD00E6006100D6
:104260006E004FF43572B249B248FEF7E5FE4FF0EA
:10427000E023D3F8F03D13F0010F00D000BE00257D
:10428000284602B0BDE8F081AB4800F095FB22461D
:1042900001213046FEF730FF0546F1E7A388DBB287
:1042A0000F2B00F29D81A54A13441B79A44A127872
:1042B000934206D2A34A116811EB431109D100259C
:1042C000DEE7511C9942C0F28D819B1A9E4901EB99
:1042D000431122463046FFF723FC0546D0E74FF056
:1042E000E023D3F8F03D13F0010F00D000BE00250D
:1042F000C6E7204600F066FB6188C9B23046FFF78A
:1043000091FA8E4A137843F0020313700125B7E740
:104310008A4B5B788DF8063001230DF106022146A9
:10432000304600F0E9FA0125AAE76588EDB2834B33
:104330005B78AB4232D0814B5B785BB97F4B5D7071
:1043400055B329463046FFF7F9FB054690B1FFF714
:104350005DFD23E000213046FFF7C4FA3046FFF749
:10436000F0FA764F97F802803046FFF78BFB87F81C
:104370000280E3E74FF449726D496E48FEF75CFE38
:104380004FF0E023D3F8F03D13F0010F00D000BE52
:104390006A4B00225A7073E7FFF739FD2146304619
:1043A00000F096FA01256BE721463046FFF7B2FC94
:1043B000054665E76388012B01D0002560E75F4A69
:1043C000137843F0080313702146304600F080FA5A
:1043D000012555E76388012B01D0002550E7574A96
:1043E000137823F0080313702146304600F070FA6A
:1043F000012545E7514B1A78930803F00203C2F3F5
:1044000040121343ADF8063002230DF10602214697
:10441000304600F071FA012532E74FF0E023D3F87F
:10442000F03D13F0010F00F0DF8000BE002527E70C
:10443000A388DBB20F2B00F2D980404A13441B79CA
:104440003F4A1278934222D23E4A116811EB43113F
:1044500000F0CE8022463046FFF762FB054600287A
:104460007FF40EAF237813F0600F7FF409AF637809
:104470000A3B012B3FF604AF00F09EFA63780A2B4B
:104480000ED02146304600F023FA0125F8E6511CF3
:104490009942C0F2AF809B1A2B4901EB4311D9E737
:1044A00000238DF8063001230DF106022146304627
:1044B00000F022FA0125E3E6A288D1B202F07F05DE
:1044C000C2F3C01012F0700F17D11C4A02EB450264
:1044D0000244127D1A48007882421ED219480568AB
:1044E00005EB421593B3002D00F086802246294645
:1044F0003046FFF715FB0546C2E640F295320C49FF
:104500000C48FEF799FD4FF0E023D3F8F03D13F08F
:10451000010F00D000BE0025B2E6451C954204DB29
:10452000121A094D05EB4215DCE70025DAE700BF5A
:1045300044710010A06C0010F9300010201200200F
:10454000E11A002050100020907100106378012BB8
:1045500010D0032B0ED07BBB3046FFF745FEADF8E5
:10456000060002230DF106022146304600F0C4F990
:10457000012585E6628822B9012B19D03046FFF764
:10458000F7FD002D3AD0224629463046FFF7C8FAFB
:10459000002000F011FA1B4B93F8355015F001057F
:1045A0007FF46EAE2146304600F092F9012567E6B1
:1045B0003046FFF7FBFDE4E74FF0E023D3F8F03D92
:1045C00013F0010F00D000BE002559E64FF0E023A4
:1045D000D3F8F03D13F0010F12D000BE00254FE6D6
:1045E00000254DE600254BE6002549E6002547E677
:1045F000002545E6002543E6002541E601253FE686
:1046000000253DE62012002010B584B0FFF714FC11
:1046100048B904B010BD9DF80400FFF77BFA9DF87F
:104620000820854B9A70854B1C686369EFF31082F4
:1046300072B6D3E8CF0F01210028FAD1C3E8401F9A
:104640000028F6D1BFF35F8FA26101A9204601F0D7
:10465000E7FB6169A3690022C1E88F2F83F310880B
:104660000028D6D09DF80530013B072B00F2DA80F8
:1046700001A252F823F000BF17460010994600101F
:1046800011480010D7470010F1470010A74600104E
:104690003D470010034800109DF80400FFF73AFA68
:1046A000FFF7B5FBBFE7664B1B78002B36D0644A9B
:1046B0001378013BDBB213701378002BB3D15E4B40
:1046C0001A7842F001021A7093F8342022F00102A5
:1046D00083F8342093F8342022F0040283F8342045
:1046E00093F8352022F0010283F8352093F8352025
:1046F00022F0040283F8352002A99DF80400FFF798
:1047000081FD00288FD100219DF80400FFF734F9C6
:1047100080219DF80400FFF72FF984E740F265221D
:1047200048494948FEF788FC4FF0E023D3F8F03DB4
:1047300013F0010F3FF46DAF00BE6AE79DF808105B
:1047400001F07F00CC093C4B03EB400303EBD1139A
:1047500093F8342022F0010283F8342093F83420B7
:1047600022F0040283F83420A8B1334B03EB40035A
:1047700023441B7D354A1278934214D2344A12687E
:1047800012EB431317D09C69039B9DF809209DF8F9
:104790000400A04747E7039B9DF809209DF804000B
:1047A00000F01EF93FE7501C984204DB9B1A294A8F
:1047B00002EB4313E7E74FF4247222492248FEF745
:1047C0003BFC4FF0E023D3F8F03D13F0010F3FF432
:1047D00020AF00BE1DE7184B1B7813F0010F3FF40C
:1047E00022AF154B1878C0F3C000FFF711FB1AE792
:1047F000114B1B7813F0010F3FF415AFFFF709FBC6
:1048000011E7029B002B3FF40EAF039898470AE78D
:10481000094BDB7813F0010F3FF405AF0298FFF767
:1048200074FA00E74FF0E023D3F8F03D13F0010FE6
:104830003FF4F9AE00BEF6E6201200207812002008
:10484000E31A002070710010A06C0010E11A002023
:10485000501000209071001008B591F90030002B25
:1048600005DB802100231A46FFF73AFC08BD002132
:10487000F8E70000F8B50746134B9E89DD89741BE5
:10488000A4B2402C28BF402493F90030002B08DB51
:104890000021AE4213D00D4A23463846FFF720FCD4
:1048A000F8BDAE4209D0084B9968402C09D8224681
:1048B000064801F0C1FC8021EBE78021E9E70022F6
:1048C000EAE70020ECE700BFE0110020A011002083
:1048D00008B586460B46074A944608684968ACE81E
:1048E000030000219160D181918119467046FFF744
:1048F000B3FF08BDE011002038B505468C46264CB4
:10490000A64608684968AEE80300A2600021E1817C
:10491000BCF806108B4228BF0B46A381BCF80610DA
:1049200029B303B132B12846FFF7A4FF044680B192
:10493000204638BD722219491948FEF77DFB4FF019
:10494000E023D3F8F03D13F0010F00D000BE0024A7
:10495000EEE7742211491248FEF76EFB4FF0E02398
:10496000D3F8F03D13F0010FE2D000BEE0E761465E
:104970002846FFF771FF04460028D9D1762207495F
:104980000748FEF759FB4FF0E023D3F8F03D13F052
:10499000010FCDD000BECBE7E0110020E871001080
:1049A000A06C0010034B00221A605A609A60DA6013
:1049B0001A617047E0110020014B1861704700BF79
:1049C000E01100200146054B1A460068496803C201
:1049D00000229A60DA819A81704700BFE0110020BE
:1049E00038B505461C463D4B1B78DB09B3EBD11FA0
:1049F0001CD07CB19D223A493A48FEF71DFB4FF08E
:104A0000E023D3F8F03D13F0010F00D000BE0024E6
:104A1000204638BD314C2146FEF772FF23691BB199
:104A200022460321284698470124F1E72B4B93F9AE
:104A30000030002B07DB294B986800284CD0224619
:104A4000294901F0F9FB254AD38913FA84F39BB273
:104A5000D381916821449160D288934201D03F2C48
:104A600026D81E4B1B6923B11C4A022128469847B1
:104A7000A0B11A492846FFF7EFFE04460028C7D127
:104A8000C52217491748FEF7D7FA4FF0E023D3F8AD
:104A9000F03D13F0010FBBD000BEB9E7002128465E
:104AA000FEF76AFF80212846FEF766FF0124AFE784
:104AB0002846FFF7DFFE04460028A9D1CD22084989
:104AC0000848FEF7B9FA4FF0E023D3F8F03D13F0B1
:104AD000010F9DD000BE9BE7002499E7E011002064
:104AE000D0710010A06C0010A011002070B5054618
:104AF000FFF790F910B90024204670BDFFF794F934
:104B000004460028F7D11C4BC82202FB0533DB7892
:104B1000002BF0D0C82605FB06F61036164B1E44B7
:104B2000304601F067F93F28E6D9134BC82202FB53
:104B30000533D9780020FFF7ABFA08B90446DBE764
:104B4000304601F057F93F280DD90B49C82303FB24
:104B500005114023094A02EBC512C9780020FFF76E
:104B6000BFFA0446C8E7044BC82202FB0533D978D4
:104B70000020FFF7A1FABFE7D81000205410002052
:104B800010B50446FFF746F908B9002010BDFFF73D
:104B90004BF948B9064BC82202FB04331B7913F0CA
:104BA000010F03D00120F1E70020EFE70020EDE73F
:104BB000D810002008B5C82303FB00F01030024BCA
:104BC000184401F0E6F808BDD810002038B50446B6
:104BD000C82300FB03F31033084818444FF6FE7354
:104BE0009A4208D892B201F03AF905462046FFF7FA
:104BF0007DFF284638BD4FF6FF72F4E7D81000203D
:104C000070B50546FFF706F908B9002070BDFFF73B
:104C10000BF90028F9D1C82405FB04F42034224BF9
:104C20001C440434204601F0B4F808B90020EDE734
:104C30001D4BC82202FB053399780020FFF728FAA4
:104C400008B90020E2E7EE014036184B1E4440222E
:104C50003146204601F003F90446D8B11249C82371
:104C600003FB05110346324689780020FFF738FA26
:104C700008B12046CAE7D5220D490E48FEF7DCF9F7
:104C80004FF0E023D3F8F03D13F0010F00D000BE49
:104C90000020BBE7044BC82202FB053399780020B3
:104CA000FFF70AFA0020B1E7D810002054100020C6
:104CB00018720010A06C001070B50546C82400FBE7
:104CC00004F420340C4B1C4404344FF6FE739A4217
:104CD0000BD892B2204601F0F6F80646204601F0C5
:104CE00058F83F2804D8304670BD4FF6FF72F1E700
:104CF0002846FFF785FFF6E7D810002008B5C8233F
:104D000003FB00F02030034B1844043001F072F82C
:104D100008BD00BFD81000202DE9F04383B0C822A1
:104D20000021244801F03AFA0025234B1D7015B1EB
:104D300003B0BDE8F0831F4FC82405FB04F43E19FF
:104D4000FF2373714FF4E133B3604FF0000886F82E
:104D50000C8086F80D800823B37304F1380104F148
:104D60001000CDF80080012340223944384400F07F
:104D7000DFFF04F1780104F120003844012300939F
:104D800040223944043000F0D3FF04F1B809B9449B
:104D90004846FBF705FEC0343C442046FBF700FEC6
:104DA000C6F81C80C6F820903463C6F834800135FC
:104DB000EDB2BCE7D8100020D410002000230BB1C6
:104DC000012070479C460C4AC82101FB0322116A4E
:104DD000106B31B1084AC82101FB03220021D161C7
:104DE000116230B1044AC82101FB0C220021116379
:104DF00051630133DBB2E2E7D810002038B500245C
:104E000004B138BD2546C82304FB03F317495818DD
:104E10000022CA500271164B1B7813F0010F11D0FB
:104E2000134B1B7813F0020F15D0C82303FB05F0BA
:104E300020300E4B18440121043001F064F8013495
:104E4000E4B2DDE7C82304FB03F31033084618443B
:104E500001F03EF8E4E7C82005FB00F02030034BEA
:104E60001844043001F034F8DFE700BFD810002008
:104E7000D41000202DE9F04182B04B79022B7DD176
:104E800006468B79022B7ED100273FB18FB98B78F4
:104E900088F800300B78CC1809251EE0C8203B4B61
:104EA00000FB073898F80230002BEFD00137FFB233
:104EB000EBE740F2411236493648FEF7BDF84FF0B5
:104EC000E023D3F8F03D13F0010F00D000BE002521
:104ED00055E023781D44ADB21C446378242B01D1E6
:104EE0009542F6D9052B09D06378042B02D163795A
:104EF0000A2B20D03846FFF7F9FD40E02146304626
:104F0000FFF736F838B1A37888F8013023781D44CC
:104F1000ADB21C44E8E740F253121D491D48FEF7AC
:104F20008BF84FF0E023D3F8F03D13F0010F00D0E1
:104F300000BE002523E021780D44ADB208F1020344
:104F4000019308F10303009302231A4621443046DB
:104F5000FFF74CF810B10E35ADB2CBE74FF4B1729C
:104F60000B490C48FEF768F84FF0E023D3F8F03D0A
:104F700013F0010F00D000BE002500E000252846F8
:104F800002B0BDE8F0810025F9E700BFD81000208D
:104F90000C720010A06C0010137803F06003202B3B
:104FA00076D170B59446002454B1002C72D19CF88F
:104FB0000130203B032B6FD8DFE803F01028345674
:104FC000C82304FB03F3384A03EB020ED25CBCF89F
:104FD00004309A42E9D00134E4B2E5E7012903D074
:104FE000032909D0012056E007230EF1080261468B
:104FF000FFF782FC01204EE02C4B002B4ED00EF12F
:1050000008012046FEF796F8012044E0012901D06E
:10501000012040E007230EF108026146FFF76CFC17
:10502000012038E0012903D0032906D0012032E015
:105030006146FFF74DFC01202DE0BCF8023003F083
:105040000105C3F340068EF8043085F001010EF12E
:10505000240000F058FF164B13B332462946204671
:10506000AFF30080012016E0012903D0032906D008
:10507000012010E06146FFF72BFC01200BE00D4BF7
:1050800083B1BCF802102046AFF30080012002E09B
:1050900000207047002070BD0020FCE70120FAE7E7
:1050A0000120F8E70120F6E7D81000203531001084
:1050B00000000000000000002DE9F84F80460D467A
:1050C0001F4600245CB1BCB9A246F378AB4223D0A2
:1050D000B378AB4255D001242046BDE8F88FC823F1
:1050E0003C4E03FB0466F378AB42ECD0B378AB42A2
:1050F000E9D00134E4B2E5E74FF4E67236493748C7
:10510000FDF79AFF4FF0E023D3F8F03D13F0010FC5
:1051100000D000BE0024DFE706F1100BBAB2304920
:1051200001EBC411584600F0CEFE2E4BDBB1737973
:10513000FF2B18D04FF0000901E009F10109B94532
:1051400011D27279264B03EBCA1313F809309A4235
:10515000F3D1584600F031FE0028EED17179204697
:10516000AFF30080E9E7204B1BB1584600F025FE65
:1051700018B12046FFF7BAFCAAE72046AFF300803B
:10518000F7E71A4B13B12046AFF300802046FFF734
:1051900037FD08B101249FE706F1240000F0F9FD76
:1051A000A0B9AFB117F03F0F01D0012494E7B17857
:1051B0004046FEF76DFF044608B901248CE7002342
:1051C0001A46B1784046FEF78BFF85E7012483E756
:1051D000012481E7D8100020FC710010A06C0010A1
:1051E000541000200000000000000000000000003B
:1051F00090B90A4B4FF4137101FB003393F8293136
:1052000033B9064B01FB00335B791BB101207047BA
:10521000012070470020704700207047BC13002019
:1052200008B10020704708B54FF41372034902FB20
:105230000011043100F02CFB08BD00BFBC1300209E
:105240002DE9F04784B04FF4137200211E4800F09E
:10525000A5FF002414B104B0BDE8F0874FF4137526
:1052600004FB05F505F5A473174F3B440433E60131
:10527000DFF858A00AEBC41205F594704FF040090E
:10528000CDF80C9002924FF48078CDF80480009312
:1052900000231A461946384400F085FA05F1200328
:1052A0003B4408334E445644E819CDF80C9002961E
:1052B000CDF804800093002301221946043000F049
:1052C00072FA0134E4B2C5E7BC1300203C1300209D
:1052D00070B500240CB1012070BD4FF4137504FBB0
:1052E00005F505F59470054E304400F086FAA819CE
:1052F000043000F082FA0134E4B2EBE7BC13002082
:105300002DE9F04100250DB1BDE8F0814FF4137493
:1053100005FB04F40B4E04EB06080027375504F593
:105320009870304400F0D4FD04F10800304404309B
:1053300000F0CEFD88F8297188F805700135EDB2CE
:10534000E1E700BFBC1300204B79FF2B40F09480B5
:105350002DE9F04780460F460C780C44A51800262E
:1053600016B10020BDE8F0873046FFF741FF10B1CD
:105370000136F6B2F4E74FF4137306FB03F33F4A2A
:1053800003EB0209B978D1542AE0AC4271D221462C
:105390004046FEF7EDFD70B30136F6B2A378DB09A7
:1053A00038D109F5947A09F5987000F091FDA37849
:1053B00089F82931A388C3F30A03B3F5007F14BF2A
:1053C0000023012399F8282163F3410289F8282159
:1053D0005146404600F0A8FA00283BD023781C44F0
:1053E0003B79B34245D96378052BCED0AC42CCD2C1
:1053F00023781C44F7E7E02221492248FDF71CFEF0
:105400004FF0E023D3F8F03D13F0010F00D000BEC1
:105410000020A7E709F10C0000F05AFDA37889F8F5
:105420000530A388C3F30A03B3F5007F14BF00233C
:10543000012399F8042063F3410289F804200F48FE
:10544000A9EB00008010104B03FB00F0C0B2FFF787
:10545000E7FEC3E7E8220A490A48FDF7EDFD4FF0F1
:10546000E023D3F8F03D13F0010F00D000BE002080
:1054700078E7E11B88B275E700207047BC13002075
:1054800030720010A06C00109B1DB5082DE9F04192
:1054900005461F4600245CB1002C48D1A04696F872
:1054A00029318B4213D073798B422BD001203FE0FE
:1054B0004FF413731F4E03FB046696F829318B4299
:1054C000EAD073798B42E7D00134E4B2E3E7B6F86F
:1054D00034317BB9184B33B1BAB2184901EBC8115A
:1054E0002046AFF3008006F59471284600F01CFAC0
:1054F00001201DE0BAB2D6F82C1106F5987000F024
:10550000E2FCE7E70E4B1BB1B9B22046AFF30080D7
:1055100004363146284600F0BBF908B1012007E007
:105520003A463146284600F06BF9012000E00020A1
:10553000BDE8F081BC130020000000003C130020F7
:105540000000000010B582B051B10A46012824D8ED
:105550000B7813B323490B54012B2FD001242AE0DD
:1055600001238DF8043000208DF8050001A9FEF715
:105570006BFC044618B11B4B01221A701BE047223A
:1055800019491A48FDF758FD4FF0E023D3F8F03DD4
:1055900013F0010F0FD000BE0DE05A22124913483C
:1055A000FDF74AFD4FF0E023D3F8F03D13F0010F73
:1055B00000D000BE0024204602B010BD1146FEF708
:1055C00043FC04460028F6D15F2207490748FDF74F
:1055D00033FD4FF0E023D3F8F03D13F0010FEAD094
:1055E00000BEE8E714120020B0720010A06C00109A
:1055F00070B50446037813F001001FD10D462378DF
:10560000C3F3800613F0040F19D14FF0FF31284681
:1056100000F0BEFE237813F0010308D1227812F0C7
:10562000040F09D1237843F0040323700126284690
:1056300000F0C2FE304602E01E46F8E7002070BDD2
:1056400070B505460C464FF0FF31204600F0A0FE35
:105650002B78C3F3800613F0040F04D1204600F02A
:10566000ABFE304670BD2B7813F0010F04D12B78C0
:1056700023F004032B70F1E70026EFE708B58388D9
:10568000C3F30A02C37803F00303022B1DD0032BDC
:1056900044D0012B5BD1022905D040F2FF33934265
:1056A00004D3012054E04FF48063F8E7D122294964
:1056B0002948FDF7C1FC4FF0E023D3F8F03D13F08B
:1056C000010F00D000BE002042E0022903D0402A92
:1056D00015D801203CE0B2F5007F01D1012037E070
:1056E000D8221C491C48FDF7A7FC4FF0E023D3F853
:1056F000F03D13F0010F00D000BE002028E0DB22B7
:1057000014491548FDF798FC4FF0E023D3F8F03D1D
:1057100013F0010F00D000BE002019E0022904D0D0
:105720004023934204D3012012E04FF48063F8E752
:10573000E12208490848FDF77FFC4FF0E023D3F849
:10574000F03D13F0010F00D000BE002000E000206B
:1057500008BD00BF9C720010A06C00100A4404E059
:105760005DF804FB91F800C0614491421AD291F8AF
:1057700001C0BCF1050FF5D100B591F802C00CF0E5
:105780007F0E00EB4E0E4FEADC1C0EF80C3091F849
:1057900000C061449142E3D291F801C0BCF1050F11
:1057A000F5D1EAE77047F0B583B004461746089D87
:1057B000BDF8246090F800C061F3000C00F808CB3D
:1057C000009301233246294600F0B2FA05B13EB9F2
:1057D0000A9B6360BDF82C306380012003B0F0BDEC
:1057E00004F11C052846FBF7DBF827B12B46002502
:1057F0006361A561ECE70023FAE701207047000030
:10580000F8B506460C4615460B7813F0020F10D07B
:105810004FF4007704F1080000F0BBFA68BB75B3E1
:10582000013F2F422DD1237813F0010F03D0002028
:1058300024E04027EEE761783046FEF729FC002897
:10584000F5D0237813F0010F0FD04FF4B5720E4945
:105850000E48FDF7F1FB4FF0E023D3F8F03D13F0D5
:10586000010F00D000BE002008E000231A46617836
:105870003046FEF735FC08B9E7E70020F8BD002008
:10588000FCE70020FAE700BF78720010A06C00105F
:1058900070B506460C4601F10805284600F079FA75
:1058A00000283BD0237813F0010F01D0002070BDF9
:1058B00061783046FEF7ECFB0028F7D0628861681B
:1058C000284600F0CCFA0546E8B1237813F0010F22
:1058D0000FD04FF4BC7212491248FDF7ADFB4FF0E8
:1058E000E023D3F8F03D13F0010F00D000BE0020FC
:1058F000DDE70346626861783046FEF7F1FB002879
:10590000E7D02846D3E7237813F0010F01D0002019
:10591000CDE761783046FEF7CFFBF8E70020C6E719
:105920005C720010A06C0010F8B506460C468B891E
:105930005BBB0B7813F0010F01D00020F8BD497854
:10594000FEF7A6FB0028F8D06388227812F0010F3A
:105950000FD04FF4D97238493848FDF76DFB4FF03E
:10596000E023D3F8F03D13F0010F00D000BE00207B
:10597000E4E761783BB162683046FEF7B1FB00288E
:10598000E7D06088DAE70022F6E70B7813F0020F21
:105990000ED04FF4007504F10807384600F02AFADB
:1059A000854247D8237813F0010F03D00020C5E7C4
:1059B0004025F0E761783046FEF76AFB0028F5D015
:1059C000384600F017FA854229D86D42ADB2628898
:1059D00005EA0003934228BF13461D46237813F0BF
:1059E000010F0FD040F2C71213491448FDF724FBF2
:1059F0004FF0E023D3F8F03D13F0010F00D000BECC
:105A000000209BE7617845B162682B463046FEF77F
:105A100067FB0028E6D0284690E70022F5E72378C8
:105A200013F0010F01D0002088E761783046FEF7BF
:105A300043FBF8E7002081E740720010A06C0010E3
:105A400003460A4490B2814202D8B0EB430F03DB15
:105A50005B009BB2C01A80B2704710B586460846FC
:105A6000BEF804C09A420CD3D41AA4B224B3A445FD
:105A700014D294450CD8A2EB0C0293B2AEF80A30C3
:105A80000CE0D41A4FEA4C0111FA84F4A4B2EDE709
:105A9000624493B2F2E7A3EB0C039BB29C45FAD9A4
:105AA000DEF80010BEF80620C2F30E0202FB03115E
:105AB00000F0C2FB012010BD0020FCE72DE9F843F7
:105AC00004460D469DF82080B0F804C0ACEB0300FE
:105AD00080B2A3EB0C0C94441FFA8CFCE188C1F358
